{
  "_format": "hh-sol-artifact-1",
  "contractName": "CryptoDevs",
  "sourceName": "contracts/CryptoDevs.sol",
  "abi": [
    {
      "inputs": [
        {
          "internalType": "string",
          "name": "baseURI",
          "type": "string"
        },
        {
          "internalType": "address",
          "name": "_whitelistContract",
          "type": "address"
        }
      ],
      "stateMutability": "nonpayable",
      "type": "constructor"
    },
    {
      "anonymous": false,
      "inputs": [
        {
          "indexed": true,
          "internalType": "address",
          "name": "owner",
          "type": "address"
        },
        {
          "indexed": true,
          "internalType": "address",
          "name": "approved",
          "type": "address"
        },
        {
          "indexed": true,
          "internalType": "uint256",
          "name": "tokenId",
          "type": "uint256"
        }
      ],
      "name": "Approval",
      "type": "event"
    },
    {
      "anonymous": false,
      "inputs": [
        {
          "indexed": true,
          "internalType": "address",
          "name": "owner",
          "type": "address"
        },
        {
          "indexed": true,
          "internalType": "address",
          "name": "operator",
          "type": "address"
        },
        {
          "indexed": false,
          "internalType": "bool",
          "name": "approved",
          "type": "bool"
        }
      ],
      "name": "ApprovalForAll",
      "type": "event"
    },
    {
      "anonymous": false,
      "inputs": [
        {
          "indexed": true,
          "internalType": "address",
          "name": "previousOwner",
          "type": "address"
        },
        {
          "indexed": true,
          "internalType": "address",
          "name": "newOwner",
          "type": "address"
        }
      ],
      "name": "OwnershipTransferred",
      "type": "event"
    },
    {
      "anonymous": false,
      "inputs": [],
      "name": "PresaleStateChanged",
      "type": "event"
    },
    {
      "anonymous": false,
      "inputs": [
        {
          "indexed": true,
          "internalType": "address",
          "name": "from",
          "type": "address"
        },
        {
          "indexed": true,
          "internalType": "address",
          "name": "to",
          "type": "address"
        },
        {
          "indexed": true,
          "internalType": "uint256",
          "name": "tokenId",
          "type": "uint256"
        }
      ],
      "name": "Transfer",
      "type": "event"
    },
    {
      "stateMutability": "payable",
      "type": "fallback"
    },
    {
      "inputs": [],
      "name": "_baseTokenURI",
      "outputs": [
        {
          "internalType": "string",
          "name": "",
          "type": "string"
        }
      ],
      "stateMutability": "view",
      "type": "function"
    },
    {
      "inputs": [
        {
          "internalType": "address",
          "name": "to",
          "type": "address"
        },
        {
          "internalType": "uint256",
          "name": "tokenId",
          "type": "uint256"
        }
      ],
      "name": "approve",
      "outputs": [],
      "stateMutability": "nonpayable",
      "type": "function"
    },
    {
      "inputs": [
        {
          "internalType": "address",
          "name": "owner",
          "type": "address"
        }
      ],
      "name": "balanceOf",
      "outputs": [
        {
          "internalType": "uint256",
          "name": "",
          "type": "uint256"
        }
      ],
      "stateMutability": "view",
      "type": "function"
    },
    {
      "inputs": [],
      "name": "endPresale",
      "outputs": [],
      "stateMutability": "nonpayable",
      "type": "function"
    },
    {
      "inputs": [
        {
          "internalType": "uint256",
          "name": "tokenId",
          "type": "uint256"
        }
      ],
      "name": "getApproved",
      "outputs": [
        {
          "internalType": "address",
          "name": "",
          "type": "address"
        }
      ],
      "stateMutability": "view",
      "type": "function"
    },
    {
      "inputs": [
        {
          "internalType": "address",
          "name": "owner",
          "type": "address"
        },
        {
          "internalType": "address",
          "name": "operator",
          "type": "address"
        }
      ],
      "name": "isApprovedForAll",
      "outputs": [
        {
          "internalType": "bool",
          "name": "",
          "type": "bool"
        }
      ],
      "stateMutability": "view",
      "type": "function"
    },
    {
      "inputs": [],
      "name": "maxNft",
      "outputs": [
        {
          "internalType": "uint8",
          "name": "",
          "type": "uint8"
        }
      ],
      "stateMutability": "view",
      "type": "function"
    },
    {
      "inputs": [],
      "name": "mint",
      "outputs": [],
      "stateMutability": "payable",
      "type": "function"
    },
    {
      "inputs": [],
      "name": "name",
      "outputs": [
        {
          "internalType": "string",
          "name": "",
          "type": "string"
        }
      ],
      "stateMutability": "view",
      "type": "function"
    },
    {
      "inputs": [],
      "name": "nftPrice",
      "outputs": [
        {
          "internalType": "uint256",
          "name": "",
          "type": "uint256"
        }
      ],
      "stateMutability": "view",
      "type": "function"
    },
    {
      "inputs": [],
      "name": "numberOfNft",
      "outputs": [
        {
          "internalType": "uint8",
          "name": "",
          "type": "uint8"
        }
      ],
      "stateMutability": "view",
      "type": "function"
    },
    {
      "inputs": [],
      "name": "owner",
      "outputs": [
        {
          "internalType": "address",
          "name": "",
          "type": "address"
        }
      ],
      "stateMutability": "view",
      "type": "function"
    },
    {
      "inputs": [
        {
          "internalType": "uint256",
          "name": "tokenId",
          "type": "uint256"
        }
      ],
      "name": "ownerOf",
      "outputs": [
        {
          "internalType": "address",
          "name": "",
          "type": "address"
        }
      ],
      "stateMutability": "view",
      "type": "function"
    },
    {
      "inputs": [],
      "name": "paused",
      "outputs": [
        {
          "internalType": "bool",
          "name": "",
          "type": "bool"
        }
      ],
      "stateMutability": "view",
      "type": "function"
    },
    {
      "inputs": [],
      "name": "presaleEnded",
      "outputs": [
        {
          "internalType": "bool",
          "name": "",
          "type": "bool"
        }
      ],
      "stateMutability": "view",
      "type": "function"
    },
    {
      "inputs": [],
      "name": "presaleMint",
      "outputs": [],
      "stateMutability": "payable",
      "type": "function"
    },
    {
      "inputs": [],
      "name": "presaleStarted",
      "outputs": [
        {
          "internalType": "bool",
          "name": "",
          "type": "bool"
        }
      ],
      "stateMutability": "view",
      "type": "function"
    },
    {
      "inputs": [],
      "name": "renounceOwnership",
      "outputs": [],
      "stateMutability": "nonpayable",
      "type": "function"
    },
    {
      "inputs": [],
      "name": "resetPresale",
      "outputs": [],
      "stateMutability": "nonpayable",
      "type": "function"
    },
    {
      "inputs": [
        {
          "internalType": "address",
          "name": "from",
          "type": "address"
        },
        {
          "internalType": "address",
          "name": "to",
          "type": "address"
        },
        {
          "internalType": "uint256",
          "name": "tokenId",
          "type": "uint256"
        }
      ],
      "name": "safeTransferFrom",
      "outputs": [],
      "stateMutability": "nonpayable",
      "type": "function"
    },
    {
      "inputs": [
        {
          "internalType": "address",
          "name": "from",
          "type": "address"
        },
        {
          "internalType": "address",
          "name": "to",
          "type": "address"
        },
        {
          "internalType": "uint256",
          "name": "tokenId",
          "type": "uint256"
        },
        {
          "internalType": "bytes",
          "name": "data",
          "type": "bytes"
        }
      ],
      "name": "safeTransferFrom",
      "outputs": [],
      "stateMutability": "nonpayable",
      "type": "function"
    },
    {
      "inputs": [
        {
          "internalType": "address",
          "name": "adr",
          "type": "address"
        }
      ],
      "name": "selfDestruct",
      "outputs": [],
      "stateMutability": "nonpayable",
      "type": "function"
    },
    {
      "inputs": [
        {
          "internalType": "address",
          "name": "operator",
          "type": "address"
        },
        {
          "internalType": "bool",
          "name": "approved",
          "type": "bool"
        }
      ],
      "name": "setApprovalForAll",
      "outputs": [],
      "stateMutability": "nonpayable",
      "type": "function"
    },
    {
      "inputs": [
        {
          "internalType": "bool",
          "name": "_paused",
          "type": "bool"
        }
      ],
      "name": "setPaused",
      "outputs": [],
      "stateMutability": "nonpayable",
      "type": "function"
    },
    {
      "inputs": [],
      "name": "startPresale",
      "outputs": [],
      "stateMutability": "nonpayable",
      "type": "function"
    },
    {
      "inputs": [
        {
          "internalType": "bytes4",
          "name": "interfaceId",
          "type": "bytes4"
        }
      ],
      "name": "supportsInterface",
      "outputs": [
        {
          "internalType": "bool",
          "name": "",
          "type": "bool"
        }
      ],
      "stateMutability": "view",
      "type": "function"
    },
    {
      "inputs": [],
      "name": "symbol",
      "outputs": [
        {
          "internalType": "string",
          "name": "",
          "type": "string"
        }
      ],
      "stateMutability": "view",
      "type": "function"
    },
    {
      "inputs": [
        {
          "internalType": "uint256",
          "name": "index",
          "type": "uint256"
        }
      ],
      "name": "tokenByIndex",
      "outputs": [
        {
          "internalType": "uint256",
          "name": "",
          "type": "uint256"
        }
      ],
      "stateMutability": "view",
      "type": "function"
    },
    {
      "inputs": [
        {
          "internalType": "address",
          "name": "owner",
          "type": "address"
        },
        {
          "internalType": "uint256",
          "name": "index",
          "type": "uint256"
        }
      ],
      "name": "tokenOfOwnerByIndex",
      "outputs": [
        {
          "internalType": "uint256",
          "name": "",
          "type": "uint256"
        }
      ],
      "stateMutability": "view",
      "type": "function"
    },
    {
      "inputs": [
        {
          "internalType": "uint256",
          "name": "tokenId",
          "type": "uint256"
        }
      ],
      "name": "tokenURI",
      "outputs": [
        {
          "internalType": "string",
          "name": "",
          "type": "string"
        }
      ],
      "stateMutability": "view",
      "type": "function"
    },
    {
      "inputs": [],
      "name": "totalSupply",
      "outputs": [
        {
          "internalType": "uint256",
          "name": "",
          "type": "uint256"
        }
      ],
      "stateMutability": "view",
      "type": "function"
    },
    {
      "inputs": [
        {
          "internalType": "address",
          "name": "from",
          "type": "address"
        },
        {
          "internalType": "address",
          "name": "to",
          "type": "address"
        },
        {
          "internalType": "uint256",
          "name": "tokenId",
          "type": "uint256"
        }
      ],
      "name": "transferFrom",
      "outputs": [],
      "stateMutability": "nonpayable",
      "type": "function"
    },
    {
      "inputs": [
        {
          "internalType": "address",
          "name": "newOwner",
          "type": "address"
        }
      ],
      "name": "transferOwnership",
      "outputs": [],
      "stateMutability": "nonpayable",
      "type": "function"
    },
    {
      "inputs": [],
      "name": "withdraw",
      "outputs": [],
      "stateMutability": "nonpayable",
      "type": "function"
    },
    {
      "stateMutability": "payable",
      "type": "receive"
    }
  ],
  "bytecode": "0x60806040523480156200001157600080fd5b50604051620044e7380380620044e78339818101604052810190620000379190620004d9565b6040518060400160405280600a81526020017f43727970746f44657673000000000000000000000000000000000000000000008152506040518060400160405280600281526020017f43440000000000000000000000000000000000000000000000000000000000008152508160009080519060200190620000bb92919062000227565b508060019080519060200190620000d492919062000227565b505050620000f7620000eb6200015960201b60201c565b6200016160201b60201c565b81600b90805190602001906200010f92919062000227565b5080600c60046101000a81548173ffffffffffffffffffffffffffffffffffffffff021916908373ffffffffffffffffffffffffffffffffffffffff1602179055505050620005a4565b600033905090565b6000600a60009054906101000a900473ffffffffffffffffffffffffffffffffffffffff16905081600a60006101000a81548173ffffffffffffffffffffffffffffffffffffffff021916908373ffffffffffffffffffffffffffffffffffffffff1602179055508173ffffffffffffffffffffffffffffffffffffffff168173ffffffffffffffffffffffffffffffffffffffff167f8be0079c531659141344cd1fd0a4f28419497f9722a3daafe3b4186f6b6457e060405160405180910390a35050565b82805462000235906200056e565b90600052602060002090601f016020900481019282620002595760008555620002a5565b82601f106200027457805160ff1916838001178555620002a5565b82800160010185558215620002a5579182015b82811115620002a457825182559160200191906001019062000287565b5b509050620002b49190620002b8565b5090565b5b80821115620002d3576000816000905550600101620002b9565b5090565b6000604051905090565b600080fd5b600080fd5b600080fd5b600080fd5b6000601f19601f8301169050919050565b7f4e487b7100000000000000000000000000000000000000000000000000000000600052604160045260246000fd5b6200034082620002f5565b810181811067ffffffffffffffff8211171562000362576200036162000306565b5b80604052505050565b600062000377620002d7565b905062000385828262000335565b919050565b600067ffffffffffffffff821115620003a857620003a762000306565b5b620003b382620002f5565b9050602081019050919050565b60005b83811015620003e0578082015181840152602081019050620003c3565b83811115620003f0576000848401525b50505050565b60006200040d62000407846200038a565b6200036b565b9050828152602081018484840111156200042c576200042b620002f0565b5b62000439848285620003c0565b509392505050565b600082601f830112620004595762000458620002eb565b5b81516200046b848260208601620003f6565b91505092915050565b600073ffffffffffffffffffffffffffffffffffffffff82169050919050565b6000620004a18262000474565b9050919050565b620004b38162000494565b8114620004bf57600080fd5b50565b600081519050620004d381620004a8565b92915050565b60008060408385031215620004f357620004f2620002e1565b5b600083015167ffffffffffffffff811115620005145762000513620002e6565b5b620005228582860162000441565b92505060206200053585828601620004c2565b9150509250929050565b7f4e487b7100000000000000000000000000000000000000000000000000000000600052602260045260246000fd5b600060028204905060018216806200058757607f821691505b602082108114156200059e576200059d6200053f565b5b50919050565b613f3380620005b46000396000f3fe6080604052600436106101fd5760003560e01c806359533d6c1161010d578063a22cb465116100a0578063cfc86f7b1161006f578063cfc86f7b146106c3578063d68381ec146106ee578063e580b2b014610705578063e985e9c514610730578063f2fde38b1461076d57610204565b8063a22cb4651461061d578063a43be57b14610646578063b88d4fde1461065d578063c87b56dd1461068657610204565b806370a08231116100dc57806370a0823114610573578063715018a6146105b05780638da5cb5b146105c757806395d89b41146105f257610204565b806359533d6c146104d65780635c975abb146104e05780636352211e1461050b578063707e25771461054857610204565b80631249c58b116101905780632f745c591161015f5780632f745c59146103f35780633ccfd60b146104305780633f5a0bdd1461044757806342842e0e146104705780634f6ccce71461049957610204565b80631249c58b1461036c57806316c38b3c1461037657806318160ddd1461039f57806323b872dd146103ca57610204565b806306fdde03116101cc57806306fdde03146102b0578063081812fc146102db578063095ea7b3146103185780630d39fc811461034157610204565b806301ffc9a714610206578063024df5691461024357806304549d6f1461026e57806304c98b2b1461029957610204565b3661020457005b005b34801561021257600080fd5b5061022d60048036038101906102289190612a37565b610796565b60405161023a9190612a7f565b60405180910390f35b34801561024f57600080fd5b50610258610810565b6040516102659190612ab6565b60405180910390f35b34801561027a57600080fd5b50610283610823565b6040516102909190612a7f565b60405180910390f35b3480156102a557600080fd5b506102ae610836565b005b3480156102bc57600080fd5b506102c5610887565b6040516102d29190612b6a565b60405180910390f35b3480156102e757600080fd5b5061030260048036038101906102fd9190612bc2565b610919565b60405161030f9190612c30565b60405180910390f35b34801561032457600080fd5b5061033f600480360381019061033a9190612c77565b61095f565b005b34801561034d57600080fd5b50610356610a77565b6040516103639190612cc6565b60405180910390f35b610374610a82565b005b34801561038257600080fd5b5061039d60048036038101906103989190612d0d565b610c19565b005b3480156103ab57600080fd5b506103b4610c3e565b6040516103c19190612cc6565b60405180910390f35b3480156103d657600080fd5b506103f160048036038101906103ec9190612d3a565b610c4b565b005b3480156103ff57600080fd5b5061041a60048036038101906104159190612c77565b610cab565b6040516104279190612cc6565b60405180910390f35b34801561043c57600080fd5b50610445610d50565b005b34801561045357600080fd5b5061046e60048036038101906104699190612d8d565b610e1a565b005b34801561047c57600080fd5b5061049760048036038101906104929190612d3a565b610e33565b005b3480156104a557600080fd5b506104c060048036038101906104bb9190612bc2565b610e53565b6040516104cd9190612cc6565b60405180910390f35b6104de610ec4565b005b3480156104ec57600080fd5b506104f561115e565b6040516105029190612a7f565b60405180910390f35b34801561051757600080fd5b50610532600480360381019061052d9190612bc2565b611171565b60405161053f9190612c30565b60405180910390f35b34801561055457600080fd5b5061055d611223565b60405161056a9190612ab6565b60405180910390f35b34801561057f57600080fd5b5061059a60048036038101906105959190612d8d565b611228565b6040516105a79190612cc6565b60405180910390f35b3480156105bc57600080fd5b506105c56112e0565b005b3480156105d357600080fd5b506105dc6112f4565b6040516105e99190612c30565b60405180910390f35b3480156105fe57600080fd5b5061060761131e565b6040516106149190612b6a565b60405180910390f35b34801561062957600080fd5b50610644600480360381019061063f9190612dba565b6113b0565b005b34801561065257600080fd5b5061065b6113c6565b005b34801561066957600080fd5b50610684600480360381019061067f9190612f2f565b611417565b005b34801561069257600080fd5b506106ad60048036038101906106a89190612bc2565b611479565b6040516106ba9190612b6a565b60405180910390f35b3480156106cf57600080fd5b506106d86114e1565b6040516106e59190612b6a565b60405180910390f35b3480156106fa57600080fd5b5061070361156f565b005b34801561071157600080fd5b5061071a6115af565b6040516107279190612a7f565b60405180910390f35b34801561073c57600080fd5b5061075760048036038101906107529190612fb2565b6115c2565b6040516107649190612a7f565b60405180910390f35b34801561077957600080fd5b50610794600480360381019061078f9190612d8d565b611656565b005b60007f780e9d63000000000000000000000000000000000000000000000000000000007bffffffffffffffffffffffffffffffffffffffffffffffffffffffff1916827bffffffffffffffffffffffffffffffffffffffffffffffffffffffff191614806108095750610808826116da565b5b9050919050565b600c60039054906101000a900460ff1681565b600c60009054906101000a900460ff1681565b61083e6117bc565b6001600c60006101000a81548160ff0219169083151502179055507fe3f5e7e1988928200eb59847d31827e0657f7d63001ea692935af4b05bc986d960405160405180910390a1565b60606000805461089690613021565b80601f01602080910402602001604051908101604052809291908181526020018280546108c290613021565b801561090f5780601f106108e45761010080835404028352916020019161090f565b820191906000526020600020905b8154815290600101906020018083116108f257829003601f168201915b5050505050905090565b60006109248261183a565b6004600083815260200190815260200160002060009054906101000a900473ffffffffffffffffffffffffffffffffffffffff169050919050565b600061096a82611171565b90508073ffffffffffffffffffffffffffffffffffffffff168373ffffffffffffffffffffffffffffffffffffffff1614156109db576040517f08c379a00000000000000000000000000000000000000000000000000000000081526004016109d2906130c5565b60405180910390fd5b8073ffffffffffffffffffffffffffffffffffffffff166109fa611885565b73ffffffffffffffffffffffffffffffffffffffff161480610a295750610a2881610a23611885565b6115c2565b5b610a68576040517f08c379a0000000000000000000000000000000000000000000000000000000008152600401610a5f90613157565b60405180910390fd5b610a72838361188d565b505050565b662386f26fc1000081565b600c60029054906101000a900460ff1615610ad2576040517f08c379a0000000000000000000000000000000000000000000000000000000008152600401610ac9906131c3565b60405180910390fd5b600c60019054906101000a900460ff16610b21576040517f08c379a0000000000000000000000000000000000000000000000000000000008152600401610b189061322f565b60405180910390fd5b601460ff16600c60039054906101000a900460ff1660ff1610610b79576040517f08c379a0000000000000000000000000000000000000000000000000000000008152600401610b709061329b565b60405180910390fd5b662386f26fc10000341015610bc3576040517f08c379a0000000000000000000000000000000000000000000000000000000008152600401610bba90613307565b60405180910390fd5b600c600381819054906101000a900460ff1680929190610be290613356565b91906101000a81548160ff021916908360ff16021790555050610c1733600c60039054906101000a900460ff1660ff16611946565b565b610c216117bc565b80600c60026101000a81548160ff02191690831515021790555050565b6000600880549050905090565b610c5c610c56611885565b82611964565b610c9b576040517f08c379a0000000000000000000000000000000000000000000000000000000008152600401610c92906133f2565b60405180910390fd5b610ca68383836119f9565b505050565b6000610cb683611228565b8210610cf7576040517f08c379a0000000000000000000000000000000000000000000000000000000008152600401610cee90613484565b60405180910390fd5b600660008473ffffffffffffffffffffffffffffffffffffffff1673ffffffffffffffffffffffffffffffffffffffff168152602001908152602001600020600083815260200190815260200160002054905092915050565b610d586117bc565b6000610d626112f4565b9050600047905060008273ffffffffffffffffffffffffffffffffffffffff1682604051610d8f906134d5565b60006040518083038185875af1925050503d8060008114610dcc576040519150601f19603f3d011682016040523d82523d6000602084013e610dd1565b606091505b5050905080610e15576040517f08c379a0000000000000000000000000000000000000000000000000000000008152600401610e0c90613536565b60405180910390fd5b505050565b8073ffffffffffffffffffffffffffffffffffffffff16ff5b610e4e83838360405180602001604052806000815250611417565b505050565b6000610e5d610c3e565b8210610e9e576040517f08c379a0000000000000000000000000000000000000000000000000000000008152600401610e95906135c8565b60405180910390fd5b60088281548110610eb257610eb16135e8565b5b90600052602060002001549050919050565b600c60029054906101000a900460ff1615610f14576040517f08c379a0000000000000000000000000000000000000000000000000000000008152600401610f0b906131c3565b60405180910390fd5b600c60009054906101000a900460ff168015610f3d5750600c60019054906101000a900460ff16155b610f7c576040517f08c379a0000000000000000000000000000000000000000000000000000000008152600401610f7390613663565b60405180910390fd5b600c60049054906101000a900473ffffffffffffffffffffffffffffffffffffffff1673ffffffffffffffffffffffffffffffffffffffff166306c933d8336040518263ffffffff1660e01b8152600401610fd79190612c30565b60206040518083038186803b158015610fef57600080fd5b505afa158015611003573d6000803e3d6000fd5b505050506040513d601f19601f820116820180604052508101906110279190613698565b611066576040517f08c379a000000000000000000000000000000000000000000000000000000000815260040161105d90613711565b60405180910390fd5b601460ff16600c60039054906101000a900460ff1660ff16106110be576040517f08c379a00000000000000000000000000000000000000000000000000000000081526004016110b59061329b565b60405180910390fd5b662386f26fc10000341015611108576040517f08c379a00000000000000000000000000000000000000000000000000000000081526004016110ff90613307565b60405180910390fd5b600c600381819054906101000a900460ff168092919061112790613356565b91906101000a81548160ff021916908360ff1602179055505061115c33600c60039054906101000a900460ff1660ff16611946565b565b600c60029054906101000a900460ff1681565b6000806002600084815260200190815260200160002060009054906101000a900473ffffffffffffffffffffffffffffffffffffffff169050600073ffffffffffffffffffffffffffffffffffffffff168173ffffffffffffffffffffffffffffffffffffffff16141561121a576040517f08c379a00000000000000000000000000000000000000000000000000000000081526004016112119061377d565b60405180910390fd5b80915050919050565b601481565b60008073ffffffffffffffffffffffffffffffffffffffff168273ffffffffffffffffffffffffffffffffffffffff161415611299576040517f08c379a00000000000000000000000000000000000000000000000000000000081526004016112909061380f565b60405180910390fd5b600360008373ffffffffffffffffffffffffffffffffffffffff1673ffffffffffffffffffffffffffffffffffffffff168152602001908152602001600020549050919050565b6112e86117bc565b6112f26000611c60565b565b6000600a60009054906101000a900473ffffffffffffffffffffffffffffffffffffffff16905090565b60606001805461132d90613021565b80601f016020809104026020016040519081016040528092919081815260200182805461135990613021565b80156113a65780601f1061137b576101008083540402835291602001916113a6565b820191906000526020600020905b81548152906001019060200180831161138957829003601f168201915b5050505050905090565b6113c26113bb611885565b8383611d26565b5050565b6113ce6117bc565b6001600c60016101000a81548160ff0219169083151502179055507fe3f5e7e1988928200eb59847d31827e0657f7d63001ea692935af4b05bc986d960405160405180910390a1565b611428611422611885565b83611964565b611467576040517f08c379a000000000000000000000000000000000000000000000000000000000815260040161145e906133f2565b60405180910390fd5b61147384848484611e93565b50505050565b60606114848261183a565b600061148e611eef565b905060008151116114ae57604051806020016040528060008152506114d9565b806114b884611f81565b6040516020016114c992919061386b565b6040516020818303038152906040525b915050919050565b600b80546114ee90613021565b80601f016020809104026020016040519081016040528092919081815260200182805461151a90613021565b80156115675780601f1061153c57610100808354040283529160200191611567565b820191906000526020600020905b81548152906001019060200180831161154a57829003601f168201915b505050505081565b6115776117bc565b6000600c60006101000a81548160ff0219169083151502179055506000600c60016101000a81548160ff021916908315150217905550565b600c60019054906101000a900460ff1681565b6000600560008473ffffffffffffffffffffffffffffffffffffffff1673ffffffffffffffffffffffffffffffffffffffff16815260200190815260200160002060008373ffffffffffffffffffffffffffffffffffffffff1673ffffffffffffffffffffffffffffffffffffffff16815260200190815260200160002060009054906101000a900460ff16905092915050565b61165e6117bc565b600073ffffffffffffffffffffffffffffffffffffffff168173ffffffffffffffffffffffffffffffffffffffff1614156116ce576040517f08c379a00000000000000000000000000000000000000000000000000000000081526004016116c590613901565b60405180910390fd5b6116d781611c60565b50565b60007f80ac58cd000000000000000000000000000000000000000000000000000000007bffffffffffffffffffffffffffffffffffffffffffffffffffffffff1916827bffffffffffffffffffffffffffffffffffffffffffffffffffffffff191614806117a557507f5b5e139f000000000000000000000000000000000000000000000000000000007bffffffffffffffffffffffffffffffffffffffffffffffffffffffff1916827bffffffffffffffffffffffffffffffffffffffffffffffffffffffff1916145b806117b557506117b4826120e2565b5b9050919050565b6117c4611885565b73ffffffffffffffffffffffffffffffffffffffff166117e26112f4565b73ffffffffffffffffffffffffffffffffffffffff1614611838576040517f08c379a000000000000000000000000000000000000000000000000000000000815260040161182f9061396d565b60405180910390fd5b565b6118438161214c565b611882576040517f08c379a00000000000000000000000000000000000000000000000000000000081526004016118799061377d565b60405180910390fd5b50565b600033905090565b816004600083815260200190815260200160002060006101000a81548173ffffffffffffffffffffffffffffffffffffffff021916908373ffffffffffffffffffffffffffffffffffffffff160217905550808273ffffffffffffffffffffffffffffffffffffffff1661190083611171565b73ffffffffffffffffffffffffffffffffffffffff167f8c5be1e5ebec7d5bd14f71427d1e84f3dd0314c0f7b2291e5b200ac8c7c3b92560405160405180910390a45050565b6119608282604051806020016040528060008152506121b8565b5050565b60008061197083611171565b90508073ffffffffffffffffffffffffffffffffffffffff168473ffffffffffffffffffffffffffffffffffffffff1614806119b257506119b181856115c2565b5b806119f057508373ffffffffffffffffffffffffffffffffffffffff166119d884610919565b73ffffffffffffffffffffffffffffffffffffffff16145b91505092915050565b8273ffffffffffffffffffffffffffffffffffffffff16611a1982611171565b73ffffffffffffffffffffffffffffffffffffffff1614611a6f576040517f08c379a0000000000000000000000000000000000000000000000000000000008152600401611a66906139ff565b60405180910390fd5b600073ffffffffffffffffffffffffffffffffffffffff168273ffffffffffffffffffffffffffffffffffffffff161415611adf576040517f08c379a0000000000000000000000000000000000000000000000000000000008152600401611ad690613a91565b60405180910390fd5b611aea838383612213565b611af560008261188d565b6001600360008573ffffffffffffffffffffffffffffffffffffffff1673ffffffffffffffffffffffffffffffffffffffff1681526020019081526020016000206000828254611b459190613ab1565b925050819055506001600360008473ffffffffffffffffffffffffffffffffffffffff1673ffffffffffffffffffffffffffffffffffffffff1681526020019081526020016000206000828254611b9c9190613ae5565b92505081905550816002600083815260200190815260200160002060006101000a81548173ffffffffffffffffffffffffffffffffffffffff021916908373ffffffffffffffffffffffffffffffffffffffff160217905550808273ffffffffffffffffffffffffffffffffffffffff168473ffffffffffffffffffffffffffffffffffffffff167fddf252ad1be2c89b69c2b068fc378daa952ba7f163c4a11628f55a4df523b3ef60405160405180910390a4611c5b838383612327565b505050565b6000600a60009054906101000a900473ffffffffffffffffffffffffffffffffffffffff16905081600a60006101000a81548173ffffffffffffffffffffffffffffffffffffffff021916908373ffffffffffffffffffffffffffffffffffffffff1602179055508173ffffffffffffffffffffffffffffffffffffffff168173ffffffffffffffffffffffffffffffffffffffff167f8be0079c531659141344cd1fd0a4f28419497f9722a3daafe3b4186f6b6457e060405160405180910390a35050565b8173ffffffffffffffffffffffffffffffffffffffff168373ffffffffffffffffffffffffffffffffffffffff161415611d95576040517f08c379a0000000000000000000000000000000000000000000000000000000008152600401611d8c90613b87565b60405180910390fd5b80600560008573ffffffffffffffffffffffffffffffffffffffff1673ffffffffffffffffffffffffffffffffffffffff16815260200190815260200160002060008473ffffffffffffffffffffffffffffffffffffffff1673ffffffffffffffffffffffffffffffffffffffff16815260200190815260200160002060006101000a81548160ff0219169083151502179055508173ffffffffffffffffffffffffffffffffffffffff168373ffffffffffffffffffffffffffffffffffffffff167f17307eab39ab6107e8899845ad3d59bd9653f200f220920489ca2b5937696c3183604051611e869190612a7f565b60405180910390a3505050565b611e9e8484846119f9565b611eaa8484848461232c565b611ee9576040517f08c379a0000000000000000000000000000000000000000000000000000000008152600401611ee090613c19565b60405180910390fd5b50505050565b6060600b8054611efe90613021565b80601f0160208091040260200160405190810160405280929190818152602001828054611f2a90613021565b8015611f775780601f10611f4c57610100808354040283529160200191611f77565b820191906000526020600020905b815481529060010190602001808311611f5a57829003601f168201915b5050505050905090565b60606000821415611fc9576040518060400160405280600181526020017f300000000000000000000000000000000000000000000000000000000000000081525090506120dd565b600082905060005b60008214611ffb578080611fe490613c39565b915050600a82611ff49190613cb1565b9150611fd1565b60008167ffffffffffffffff81111561201757612016612e04565b5b6040519080825280601f01601f1916602001820160405280156120495781602001600182028036833780820191505090505b5090505b600085146120d6576001826120629190613ab1565b9150600a856120719190613ce2565b603061207d9190613ae5565b60f81b818381518110612093576120926135e8565b5b60200101907effffffffffffffffffffffffffffffffffffffffffffffffffffffffffffff1916908160001a905350600a856120cf9190613cb1565b945061204d565b8093505050505b919050565b60007f01ffc9a7000000000000000000000000000000000000000000000000000000007bffffffffffffffffffffffffffffffffffffffffffffffffffffffff1916827bffffffffffffffffffffffffffffffffffffffffffffffffffffffff1916149050919050565b60008073ffffffffffffffffffffffffffffffffffffffff166002600084815260200190815260200160002060009054906101000a900473ffffffffffffffffffffffffffffffffffffffff1673ffffffffffffffffffffffffffffffffffffffff1614159050919050565b6121c283836124c3565b6121cf600084848461232c565b61220e576040517f08c379a000000000000000000000000000000000000000000000000000000000815260040161220590613c19565b60405180910390fd5b505050565b61221e83838361269d565b600073ffffffffffffffffffffffffffffffffffffffff168373ffffffffffffffffffffffffffffffffffffffff1614156122615761225c816126a2565b6122a0565b8173ffffffffffffffffffffffffffffffffffffffff168373ffffffffffffffffffffffffffffffffffffffff161461229f5761229e83826126eb565b5b5b600073ffffffffffffffffffffffffffffffffffffffff168273ffffffffffffffffffffffffffffffffffffffff1614156122e3576122de81612858565b612322565b8273ffffffffffffffffffffffffffffffffffffffff168273ffffffffffffffffffffffffffffffffffffffff1614612321576123208282612929565b5b5b505050565b505050565b600061234d8473ffffffffffffffffffffffffffffffffffffffff166129a8565b156124b6578373ffffffffffffffffffffffffffffffffffffffff1663150b7a02612376611885565b8786866040518563ffffffff1660e01b81526004016123989493929190613d68565b602060405180830381600087803b1580156123b257600080fd5b505af19250505080156123e357506040513d601f19601f820116820180604052508101906123e09190613dc9565b60015b612466573d8060008114612413576040519150601f19603f3d011682016040523d82523d6000602084013e612418565b606091505b5060008151141561245e576040517f08c379a000000000000000000000000000000000000000000000000000000000815260040161245590613c19565b60405180910390fd5b805181602001fd5b63150b7a0260e01b7bffffffffffffffffffffffffffffffffffffffffffffffffffffffff1916817bffffffffffffffffffffffffffffffffffffffffffffffffffffffff1916149150506124bb565b600190505b949350505050565b600073ffffffffffffffffffffffffffffffffffffffff168273ffffffffffffffffffffffffffffffffffffffff161415612533576040517f08c379a000000000000000000000000000000000000000000000000000000000815260040161252a90613e42565b60405180910390fd5b61253c8161214c565b1561257c576040517f08c379a000000000000000000000000000000000000000000000000000000000815260040161257390613eae565b60405180910390fd5b61258860008383612213565b6001600360008473ffffffffffffffffffffffffffffffffffffffff1673ffffffffffffffffffffffffffffffffffffffff16815260200190815260200160002060008282546125d89190613ae5565b92505081905550816002600083815260200190815260200160002060006101000a81548173ffffffffffffffffffffffffffffffffffffffff021916908373ffffffffffffffffffffffffffffffffffffffff160217905550808273ffffffffffffffffffffffffffffffffffffffff16600073ffffffffffffffffffffffffffffffffffffffff167fddf252ad1be2c89b69c2b068fc378daa952ba7f163c4a11628f55a4df523b3ef60405160405180910390a461269960008383612327565b5050565b505050565b6008805490506009600083815260200190815260200160002081905550600881908060018154018082558091505060019003906000526020600020016000909190919091505550565b600060016126f884611228565b6127029190613ab1565b90506000600760008481526020019081526020016000205490508181146127e7576000600660008673ffffffffffffffffffffffffffffffffffffffff1673ffffffffffffffffffffffffffffffffffffffff168152602001908152602001600020600084815260200190815260200160002054905080600660008773ffffffffffffffffffffffffffffffffffffffff1673ffffffffffffffffffffffffffffffffffffffff168152602001908152602001600020600084815260200190815260200160002081905550816007600083815260200190815260200160002081905550505b6007600084815260200190815260200160002060009055600660008573ffffffffffffffffffffffffffffffffffffffff1673ffffffffffffffffffffffffffffffffffffffff16815260200190815260200160002060008381526020019081526020016000206000905550505050565b6000600160088054905061286c9190613ab1565b905060006009600084815260200190815260200160002054905060006008838154811061289c5761289b6135e8565b5b9060005260206000200154905080600883815481106128be576128bd6135e8565b5b90600052602060002001819055508160096000838152602001908152602001600020819055506009600085815260200190815260200160002060009055600880548061290d5761290c613ece565b5b6001900381819060005260206000200160009055905550505050565b600061293483611228565b905081600660008573ffffffffffffffffffffffffffffffffffffffff1673ffffffffffffffffffffffffffffffffffffffff168152602001908152602001600020600083815260200190815260200160002081905550806007600084815260200190815260200160002081905550505050565b6000808273ffffffffffffffffffffffffffffffffffffffff163b119050919050565b6000604051905090565b600080fd5b600080fd5b60007fffffffff0000000000000000000000000000000000000000000000000000000082169050919050565b612a14816129df565b8114612a1f57600080fd5b50565b600081359050612a3181612a0b565b92915050565b600060208284031215612a4d57612a4c6129d5565b5b6000612a5b84828501612a22565b91505092915050565b60008115159050919050565b612a7981612a64565b82525050565b6000602082019050612a946000830184612a70565b92915050565b600060ff82169050919050565b612ab081612a9a565b82525050565b6000602082019050612acb6000830184612aa7565b92915050565b600081519050919050565b600082825260208201905092915050565b60005b83811015612b0b578082015181840152602081019050612af0565b83811115612b1a576000848401525b50505050565b6000601f19601f8301169050919050565b6000612b3c82612ad1565b612b468185612adc565b9350612b56818560208601612aed565b612b5f81612b20565b840191505092915050565b60006020820190508181036000830152612b848184612b31565b905092915050565b6000819050919050565b612b9f81612b8c565b8114612baa57600080fd5b50565b600081359050612bbc81612b96565b92915050565b600060208284031215612bd857612bd76129d5565b5b6000612be684828501612bad565b91505092915050565b600073ffffffffffffffffffffffffffffffffffffffff82169050919050565b6000612c1a82612bef565b9050919050565b612c2a81612c0f565b82525050565b6000602082019050612c456000830184612c21565b92915050565b612c5481612c0f565b8114612c5f57600080fd5b50565b600081359050612c7181612c4b565b92915050565b60008060408385031215612c8e57612c8d6129d5565b5b6000612c9c85828601612c62565b9250506020612cad85828601612bad565b9150509250929050565b612cc081612b8c565b82525050565b6000602082019050612cdb6000830184612cb7565b92915050565b612cea81612a64565b8114612cf557600080fd5b50565b600081359050612d0781612ce1565b92915050565b600060208284031215612d2357612d226129d5565b5b6000612d3184828501612cf8565b91505092915050565b600080600060608486031215612d5357612d526129d5565b5b6000612d6186828701612c62565b9350506020612d7286828701612c62565b9250506040612d8386828701612bad565b9150509250925092565b600060208284031215612da357612da26129d5565b5b6000612db184828501612c62565b91505092915050565b60008060408385031215612dd157612dd06129d5565b5b6000612ddf85828601612c62565b9250506020612df085828601612cf8565b9150509250929050565b600080fd5b600080fd5b7f4e487b7100000000000000000000000000000000000000000000000000000000600052604160045260246000fd5b612e3c82612b20565b810181811067ffffffffffffffff82111715612e5b57612e5a612e04565b5b80604052505050565b6000612e6e6129cb565b9050612e7a8282612e33565b919050565b600067ffffffffffffffff821115612e9a57612e99612e04565b5b612ea382612b20565b9050602081019050919050565b82818337600083830152505050565b6000612ed2612ecd84612e7f565b612e64565b905082815260208101848484011115612eee57612eed612dff565b5b612ef9848285612eb0565b509392505050565b600082601f830112612f1657612f15612dfa565b5b8135612f26848260208601612ebf565b91505092915050565b60008060008060808587031215612f4957612f486129d5565b5b6000612f5787828801612c62565b9450506020612f6887828801612c62565b9350506040612f7987828801612bad565b925050606085013567ffffffffffffffff811115612f9a57612f996129da565b5b612fa687828801612f01565b91505092959194509250565b60008060408385031215612fc957612fc86129d5565b5b6000612fd785828601612c62565b9250506020612fe885828601612c62565b9150509250929050565b7f4e487b7100000000000000000000000000000000000000000000000000000000600052602260045260246000fd5b6000600282049050600182168061303957607f821691505b6020821081141561304d5761304c612ff2565b5b50919050565b7f4552433732313a20617070726f76616c20746f2063757272656e74206f776e6560008201527f7200000000000000000000000000000000000000000000000000000000000000602082015250565b60006130af602183612adc565b91506130ba82613053565b604082019050919050565b600060208201905081810360008301526130de816130a2565b9050919050565b7f4552433732313a20617070726f76652063616c6c6572206973206e6f7420746f60008201527f6b656e206f776e6572206e6f7220617070726f76656420666f7220616c6c0000602082015250565b6000613141603e83612adc565b915061314c826130e5565b604082019050919050565b6000602082019050818103600083015261317081613134565b9050919050565b7f636f6e7472616374206973207061757365640000000000000000000000000000600082015250565b60006131ad601283612adc565b91506131b882613177565b602082019050919050565b600060208201905081810360008301526131dc816131a0565b9050919050565b7f50726573616c65206973207374696c6c206c6976650000000000000000000000600082015250565b6000613219601583612adc565b9150613224826131e3565b602082019050919050565b600060208201905081810360008301526132488161320c565b9050919050565b7f4d6178206f66204e465420616c7265616479206d696e74656420210000000000600082015250565b6000613285601b83612adc565b91506132908261324f565b602082019050919050565b600060208201905081810360008301526132b481613278565b9050919050565b7f4e6f7420656e6f7567682045746865722070726f766964656400000000000000600082015250565b60006132f1601983612adc565b91506132fc826132bb565b602082019050919050565b60006020820190508181036000830152613320816132e4565b9050919050565b7f4e487b7100000000000000000000000000000000000000000000000000000000600052601160045260246000fd5b600061336182612a9a565b915060ff82141561337557613374613327565b5b600182019050919050565b7f4552433732313a2063616c6c6572206973206e6f7420746f6b656e206f776e6560008201527f72206e6f7220617070726f766564000000000000000000000000000000000000602082015250565b60006133dc602e83612adc565b91506133e782613380565b604082019050919050565b6000602082019050818103600083015261340b816133cf565b9050919050565b7f455243373231456e756d657261626c653a206f776e657220696e646578206f7560008201527f74206f6620626f756e6473000000000000000000000000000000000000000000602082015250565b600061346e602b83612adc565b915061347982613412565b604082019050919050565b6000602082019050818103600083015261349d81613461565b9050919050565b600081905092915050565b50565b60006134bf6000836134a4565b91506134ca826134af565b600082019050919050565b60006134e0826134b2565b9150819050919050565b7f6661696c656420746f2073656e64204574686572000000000000000000000000600082015250565b6000613520601483612adc565b915061352b826134ea565b602082019050919050565b6000602082019050818103600083015261354f81613513565b9050919050565b7f455243373231456e756d657261626c653a20676c6f62616c20696e646578206f60008201527f7574206f6620626f756e64730000000000000000000000000000000000000000602082015250565b60006135b2602c83612adc565b91506135bd82613556565b604082019050919050565b600060208201905081810360008301526135e1816135a5565b9050919050565b7f4e487b7100000000000000000000000000000000000000000000000000000000600052603260045260246000fd5b7f50726573616c65206973206e6f74206c69766500000000000000000000000000600082015250565b600061364d601383612adc565b915061365882613617565b602082019050919050565b6000602082019050818103600083015261367c81613640565b9050919050565b60008151905061369281612ce1565b92915050565b6000602082840312156136ae576136ad6129d5565b5b60006136bc84828501613683565b91505092915050565b7f596f75277265206e6f742077686974656c697374656420210000000000000000600082015250565b60006136fb601883612adc565b9150613706826136c5565b602082019050919050565b6000602082019050818103600083015261372a816136ee565b9050919050565b7f4552433732313a20696e76616c696420746f6b656e2049440000000000000000600082015250565b6000613767601883612adc565b915061377282613731565b602082019050919050565b600060208201905081810360008301526137968161375a565b9050919050565b7f4552433732313a2061646472657373207a65726f206973206e6f74206120766160008201527f6c6964206f776e65720000000000000000000000000000000000000000000000602082015250565b60006137f9602983612adc565b91506138048261379d565b604082019050919050565b60006020820190508181036000830152613828816137ec565b9050919050565b600081905092915050565b600061384582612ad1565b61384f818561382f565b935061385f818560208601612aed565b80840191505092915050565b6000613877828561383a565b9150613883828461383a565b91508190509392505050565b7f4f776e61626c653a206e6577206f776e657220697320746865207a65726f206160008201527f6464726573730000000000000000000000000000000000000000000000000000602082015250565b60006138eb602683612adc565b91506138f68261388f565b604082019050919050565b6000602082019050818103600083015261391a816138de565b9050919050565b7f4f776e61626c653a2063616c6c6572206973206e6f7420746865206f776e6572600082015250565b6000613957602083612adc565b915061396282613921565b602082019050919050565b600060208201905081810360008301526139868161394a565b9050919050565b7f4552433732313a207472616e736665722066726f6d20696e636f72726563742060008201527f6f776e6572000000000000000000000000000000000000000000000000000000602082015250565b60006139e9602583612adc565b91506139f48261398d565b604082019050919050565b60006020820190508181036000830152613a18816139dc565b9050919050565b7f4552433732313a207472616e7366657220746f20746865207a65726f2061646460008201527f7265737300000000000000000000000000000000000000000000000000000000602082015250565b6000613a7b602483612adc565b9150613a8682613a1f565b604082019050919050565b60006020820190508181036000830152613aaa81613a6e565b9050919050565b6000613abc82612b8c565b9150613ac783612b8c565b925082821015613ada57613ad9613327565b5b828203905092915050565b6000613af082612b8c565b9150613afb83612b8c565b9250827fffffffffffffffffffffffffffffffffffffffffffffffffffffffffffffffff03821115613b3057613b2f613327565b5b828201905092915050565b7f4552433732313a20617070726f766520746f2063616c6c657200000000000000600082015250565b6000613b71601983612adc565b9150613b7c82613b3b565b602082019050919050565b60006020820190508181036000830152613ba081613b64565b9050919050565b7f4552433732313a207472616e7366657220746f206e6f6e20455243373231526560008201527f63656976657220696d706c656d656e7465720000000000000000000000000000602082015250565b6000613c03603283612adc565b9150613c0e82613ba7565b604082019050919050565b60006020820190508181036000830152613c3281613bf6565b9050919050565b6000613c4482612b8c565b91507fffffffffffffffffffffffffffffffffffffffffffffffffffffffffffffffff821415613c7757613c76613327565b5b600182019050919050565b7f4e487b7100000000000000000000000000000000000000000000000000000000600052601260045260246000fd5b6000613cbc82612b8c565b9150613cc783612b8c565b925082613cd757613cd6613c82565b5b828204905092915050565b6000613ced82612b8c565b9150613cf883612b8c565b925082613d0857613d07613c82565b5b828206905092915050565b600081519050919050565b600082825260208201905092915050565b6000613d3a82613d13565b613d448185613d1e565b9350613d54818560208601612aed565b613d5d81612b20565b840191505092915050565b6000608082019050613d7d6000830187612c21565b613d8a6020830186612c21565b613d976040830185612cb7565b8181036060830152613da98184613d2f565b905095945050505050565b600081519050613dc381612a0b565b92915050565b600060208284031215613ddf57613dde6129d5565b5b6000613ded84828501613db4565b91505092915050565b7f4552433732313a206d696e7420746f20746865207a65726f2061646472657373600082015250565b6000613e2c602083612adc565b9150613e3782613df6565b602082019050919050565b60006020820190508181036000830152613e5b81613e1f565b9050919050565b7f4552433732313a20746f6b656e20616c7265616479206d696e74656400000000600082015250565b6000613e98601c83612adc565b9150613ea382613e62565b602082019050919050565b60006020820190508181036000830152613ec781613e8b565b9050919050565b7f4e487b7100000000000000000000000000000000000000000000000000000000600052603160045260246000fdfea26469706673582212201e66368e676e2d7f4ae6e8b1874c365dd642e0e243a5b483803c8ce697085d9164736f6c63430008090033",
  "linkReferences": {},
  "deployedLinkReferences": {}
}