{
  "_format": "hh-sol-artifact-1",
  "contractName": "Whitelist",
  "sourceName": "contracts/Whitelist.sol",
  "abi": [
    {
      "inputs": [
        {
          "internalType": "uint8",
          "name": "_numberMaxOfAddresses",
          "type": "uint8"
        }
      ],
      "stateMutability": "nonpayable",
      "type": "constructor"
    },
    {
      "inputs": [],
      "name": "numAddressesWhitelisted",
      "outputs": [
        {
          "internalType": "uint8",
          "name": "",
          "type": "uint8"
        }
      ],
      "stateMutability": "view",
      "type": "function"
    },
    {
      "inputs": [],
      "name": "numberMaxOfAddresses",
      "outputs": [
        {
          "internalType": "uint8",
          "name": "",
          "type": "uint8"
        }
      ],
      "stateMutability": "view",
      "type": "function"
    },
    {
      "inputs": [
        {
          "internalType": "address",
          "name": "adr",
          "type": "address"
        }
      ],
      "name": "selfDestruct",
      "outputs": [],
      "stateMutability": "nonpayable",
      "type": "function"
    },
    {
      "inputs": [],
      "name": "whitelistMyAddress",
      "outputs": [],
      "stateMutability": "nonpayable",
      "type": "function"
    },
    {
      "inputs": [
        {
          "internalType": "address",
          "name": "",
          "type": "address"
        }
      ],
      "name": "whitelistedAddresses",
      "outputs": [
        {
          "internalType": "bool",
          "name": "",
          "type": "bool"
        }
      ],
      "stateMutability": "view",
      "type": "function"
    }
  ],
  "bytecode": "0x608060405234801561001057600080fd5b5060405161063538038061063583398181016040528101906100329190610090565b806000806101000a81548160ff021916908360ff160217905550506100bd565b600080fd5b600060ff82169050919050565b61006d81610057565b811461007857600080fd5b50565b60008151905061008a81610064565b92915050565b6000602082840312156100a6576100a5610052565b5b60006100b48482850161007b565b91505092915050565b610569806100cc6000396000f3fe608060405234801561001057600080fd5b50600436106100575760003560e01c806306c933d81461005c5780633f5a0bdd1461008c5780634011d7cd146100a857806390525eed146100c6578063d675b408146100d0575b600080fd5b61007660048036038101906100719190610331565b6100ee565b6040516100839190610379565b60405180910390f35b6100a660048036038101906100a19190610331565b61010e565b005b6100b0610127565b6040516100bd91906103b0565b60405180910390f35b6100ce61013a565b005b6100d86102bd565b6040516100e591906103b0565b60405180910390f35b60016020528060005260406000206000915054906101000a900460ff1681565b8073ffffffffffffffffffffffffffffffffffffffff16ff5b600060019054906101000a900460ff1681565b600160003373ffffffffffffffffffffffffffffffffffffffff1673ffffffffffffffffffffffffffffffffffffffff16815260200190815260200160002060009054906101000a900460ff16156101c7576040517f08c379a00000000000000000000000000000000000000000000000000000000081526004016101be90610428565b60405180910390fd5b60008054906101000a900460ff1660ff16600060019054906101000a900460ff1660ff16111561022c576040517f08c379a0000000000000000000000000000000000000000000000000000000008152600401610223906104ba565b60405180910390fd5b60018060003373ffffffffffffffffffffffffffffffffffffffff1673ffffffffffffffffffffffffffffffffffffffff16815260200190815260200160002060006101000a81548160ff0219169083151502179055506000600181819054906101000a900460ff16809291906102a290610509565b91906101000a81548160ff021916908360ff16021790555050565b60008054906101000a900460ff1681565b600080fd5b600073ffffffffffffffffffffffffffffffffffffffff82169050919050565b60006102fe826102d3565b9050919050565b61030e816102f3565b811461031957600080fd5b50565b60008135905061032b81610305565b92915050565b600060208284031215610347576103466102ce565b5b60006103558482850161031c565b91505092915050565b60008115159050919050565b6103738161035e565b82525050565b600060208201905061038e600083018461036a565b92915050565b600060ff82169050919050565b6103aa81610394565b82525050565b60006020820190506103c560008301846103a1565b92915050565b600082825260208201905092915050565b7f5573657220616c72656164792077686974656c69737465640000000000000000600082015250565b60006104126018836103cb565b915061041d826103dc565b602082019050919050565b6000602082019050818103600083015261044181610405565b9050919050565b7f4e756d626572206f66206d6178696d756d2077686974656c697374656420616460008201527f6472657373657320726561636865640000000000000000000000000000000000602082015250565b60006104a4602f836103cb565b91506104af82610448565b604082019050919050565b600060208201905081810360008301526104d381610497565b9050919050565b7f4e487b7100000000000000000000000000000000000000000000000000000000600052601160045260246000fd5b600061051482610394565b915060ff821415610528576105276104da565b5b60018201905091905056fea2646970667358221220d290cd74bbc67c39bdf4a93c17dd056069b160a30b6f8fa7e3cd6e6bef45498d64736f6c63430008090033",
  "linkReferences": {},
  "deployedLinkReferences": {}
}